{
  "address": "0xd7eCfABca7D8b97697e2DE751b5092bDE4e04db7",
  "abi": [
    {
      "inputs": [
        {
          "internalType": "string",
          "name": "name",
          "type": "string"
        },
        {
          "internalType": "string",
          "name": "symbol",
          "type": "string"
        },
        {
          "internalType": "address",
          "name": "_token",
          "type": "address"
        },
        {
          "internalType": "address",
          "name": "_treasury",
          "type": "address"
        },
        {
          "internalType": "uint256",
          "name": "_escrowDuration",
          "type": "uint256"
        }
      ],
      "stateMutability": "nonpayable",
      "type": "constructor"
    },
    {
      "anonymous": false,
      "inputs": [
        {
          "indexed": true,
          "internalType": "address",
          "name": "owner",
          "type": "address"
        },
        {
          "indexed": true,
          "internalType": "address",
          "name": "spender",
          "type": "address"
        },
        {
          "indexed": false,
          "internalType": "uint256",
          "name": "value",
          "type": "uint256"
        }
      ],
      "name": "Approval",
      "type": "event"
    },
    {
      "anonymous": false,
      "inputs": [
        {
          "indexed": true,
          "internalType": "address",
          "name": "minter",
          "type": "address"
        },
        {
          "indexed": false,
          "internalType": "bool",
          "name": "approved",
          "type": "bool"
        }
      ],
      "name": "MinterUpdated",
      "type": "event"
    },
    {
      "anonymous": false,
      "inputs": [
        {
          "indexed": true,
          "internalType": "address",
          "name": "previousOwner",
          "type": "address"
        },
        {
          "indexed": true,
          "internalType": "address",
          "name": "newOwner",
          "type": "address"
        }
      ],
      "name": "OwnershipTransferred",
      "type": "event"
    },
    {
      "anonymous": false,
      "inputs": [
        {
          "indexed": true,
          "internalType": "address",
          "name": "user",
          "type": "address"
        },
        {
          "indexed": false,
          "internalType": "uint256",
          "name": "amount",
          "type": "uint256"
        }
      ],
      "name": "Redeemed",
      "type": "event"
    },
    {
      "anonymous": false,
      "inputs": [
        {
          "indexed": true,
          "internalType": "address",
          "name": "from",
          "type": "address"
        },
        {
          "indexed": true,
          "internalType": "address",
          "name": "to",
          "type": "address"
        },
        {
          "indexed": false,
          "internalType": "uint256",
          "name": "value",
          "type": "uint256"
        }
      ],
      "name": "Transfer",
      "type": "event"
    },
    {
      "inputs": [
        {
          "internalType": "address",
          "name": "owner",
          "type": "address"
        },
        {
          "internalType": "address",
          "name": "spender",
          "type": "address"
        }
      ],
      "name": "allowance",
      "outputs": [
        {
          "internalType": "uint256",
          "name": "",
          "type": "uint256"
        }
      ],
      "stateMutability": "view",
      "type": "function"
    },
    {
      "inputs": [
        {
          "internalType": "address",
          "name": "spender",
          "type": "address"
        },
        {
          "internalType": "uint256",
          "name": "amount",
          "type": "uint256"
        }
      ],
      "name": "approve",
      "outputs": [
        {
          "internalType": "bool",
          "name": "",
          "type": "bool"
        }
      ],
      "stateMutability": "nonpayable",
      "type": "function"
    },
    {
      "inputs": [
        {
          "internalType": "address",
          "name": "account",
          "type": "address"
        }
      ],
      "name": "balanceOf",
      "outputs": [
        {
          "internalType": "uint256",
          "name": "",
          "type": "uint256"
        }
      ],
      "stateMutability": "view",
      "type": "function"
    },
    {
      "inputs": [
        {
          "internalType": "address",
          "name": "",
          "type": "address"
        }
      ],
      "name": "counter",
      "outputs": [
        {
          "internalType": "uint64",
          "name": "",
          "type": "uint64"
        }
      ],
      "stateMutability": "view",
      "type": "function"
    },
    {
      "inputs": [],
      "name": "decimals",
      "outputs": [
        {
          "internalType": "uint8",
          "name": "",
          "type": "uint8"
        }
      ],
      "stateMutability": "view",
      "type": "function"
    },
    {
      "inputs": [
        {
          "internalType": "address",
          "name": "spender",
          "type": "address"
        },
        {
          "internalType": "uint256",
          "name": "subtractedValue",
          "type": "uint256"
        }
      ],
      "name": "decreaseAllowance",
      "outputs": [
        {
          "internalType": "bool",
          "name": "",
          "type": "bool"
        }
      ],
      "stateMutability": "nonpayable",
      "type": "function"
    },
    {
      "inputs": [],
      "name": "escrowDuration",
      "outputs": [
        {
          "internalType": "uint256",
          "name": "",
          "type": "uint256"
        }
      ],
      "stateMutability": "view",
      "type": "function"
    },
    {
      "inputs": [
        {
          "internalType": "address",
          "name": "spender",
          "type": "address"
        },
        {
          "internalType": "uint256",
          "name": "addedValue",
          "type": "uint256"
        }
      ],
      "name": "increaseAllowance",
      "outputs": [
        {
          "internalType": "bool",
          "name": "",
          "type": "bool"
        }
      ],
      "stateMutability": "nonpayable",
      "type": "function"
    },
    {
      "inputs": [
        {
          "internalType": "address",
          "name": "",
          "type": "address"
        },
        {
          "internalType": "uint256",
          "name": "",
          "type": "uint256"
        }
      ],
      "name": "locks",
      "outputs": [
        {
          "internalType": "uint256",
          "name": "amount",
          "type": "uint256"
        },
        {
          "internalType": "uint64",
          "name": "end",
          "type": "uint64"
        }
      ],
      "stateMutability": "view",
      "type": "function"
    },
    {
      "inputs": [
        {
          "internalType": "address",
          "name": "_to",
          "type": "address"
        },
        {
          "internalType": "uint256",
          "name": "_amount",
          "type": "uint256"
        }
      ],
      "name": "mint",
      "outputs": [
        {
          "internalType": "bool",
          "name": "",
          "type": "bool"
        }
      ],
      "stateMutability": "nonpayable",
      "type": "function"
    },
    {
      "inputs": [
        {
          "internalType": "address",
          "name": "",
          "type": "address"
        }
      ],
      "name": "minters",
      "outputs": [
        {
          "internalType": "bool",
          "name": "",
          "type": "bool"
        }
      ],
      "stateMutability": "view",
      "type": "function"
    },
    {
      "inputs": [],
      "name": "name",
      "outputs": [
        {
          "internalType": "string",
          "name": "",
          "type": "string"
        }
      ],
      "stateMutability": "view",
      "type": "function"
    },
    {
      "inputs": [],
      "name": "owner",
      "outputs": [
        {
          "internalType": "address",
          "name": "",
          "type": "address"
        }
      ],
      "stateMutability": "view",
      "type": "function"
    },
    {
      "inputs": [],
      "name": "redeem",
      "outputs": [],
      "stateMutability": "nonpayable",
      "type": "function"
    },
    {
      "inputs": [],
      "name": "redeemAll",
      "outputs": [],
      "stateMutability": "nonpayable",
      "type": "function"
    },
    {
      "inputs": [],
      "name": "redeemedRewards",
      "outputs": [
        {
          "internalType": "uint256",
          "name": "",
          "type": "uint256"
        }
      ],
      "stateMutability": "view",
      "type": "function"
    },
    {
      "inputs": [],
      "name": "renounceOwnership",
      "outputs": [],
      "stateMutability": "nonpayable",
      "type": "function"
    },
    {
      "inputs": [
        {
          "internalType": "address",
          "name": "_minter",
          "type": "address"
        }
      ],
      "name": "setMinter",
      "outputs": [],
      "stateMutability": "nonpayable",
      "type": "function"
    },
    {
      "inputs": [
        {
          "internalType": "address",
          "name": "_treasury",
          "type": "address"
        }
      ],
      "name": "setTreasury",
      "outputs": [],
      "stateMutability": "nonpayable",
      "type": "function"
    },
    {
      "inputs": [],
      "name": "symbol",
      "outputs": [
        {
          "internalType": "string",
          "name": "",
          "type": "string"
        }
      ],
      "stateMutability": "view",
      "type": "function"
    },
    {
      "inputs": [],
      "name": "token",
      "outputs": [
        {
          "internalType": "contract IERC20",
          "name": "",
          "type": "address"
        }
      ],
      "stateMutability": "view",
      "type": "function"
    },
    {
      "inputs": [],
      "name": "totalSupply",
      "outputs": [
        {
          "internalType": "uint256",
          "name": "",
          "type": "uint256"
        }
      ],
      "stateMutability": "view",
      "type": "function"
    },
    {
      "inputs": [
        {
          "internalType": "address",
          "name": "recipient",
          "type": "address"
        },
        {
          "internalType": "uint256",
          "name": "amount",
          "type": "uint256"
        }
      ],
      "name": "transfer",
      "outputs": [
        {
          "internalType": "bool",
          "name": "",
          "type": "bool"
        }
      ],
      "stateMutability": "nonpayable",
      "type": "function"
    },
    {
      "inputs": [
        {
          "internalType": "address",
          "name": "sender",
          "type": "address"
        },
        {
          "internalType": "address",
          "name": "recipient",
          "type": "address"
        },
        {
          "internalType": "uint256",
          "name": "amount",
          "type": "uint256"
        }
      ],
      "name": "transferFrom",
      "outputs": [
        {
          "internalType": "bool",
          "name": "",
          "type": "bool"
        }
      ],
      "stateMutability": "nonpayable",
      "type": "function"
    },
    {
      "inputs": [
        {
          "internalType": "address",
          "name": "newOwner",
          "type": "address"
        }
      ],
      "name": "transferOwnership",
      "outputs": [],
      "stateMutability": "nonpayable",
      "type": "function"
    },
    {
      "inputs": [],
      "name": "treasury",
      "outputs": [
        {
          "internalType": "address",
          "name": "",
          "type": "address"
        }
      ],
      "stateMutability": "view",
      "type": "function"
    },
    {
      "inputs": [
        {
          "internalType": "address",
          "name": "_user",
          "type": "address"
        }
      ],
      "name": "vested",
      "outputs": [
        {
          "internalType": "uint256",
          "name": "rewards",
          "type": "uint256"
        }
      ],
      "stateMutability": "view",
      "type": "function"
    }
  ],
  "transactionHash": "0x3ff0fe18083f84ea4043ed6bfdc0b49a3f0a59f61f4ca8d0769defa7b4ddfe02",
  "args": [
    "Escrowed Oh! Finance",
    "EOH",
    "0x6b461A994d76d8248a6B439D4a19cDfd821409eE",
    "0x123456D302B690f8525B4BAC5681101d706e850e",
    7776000
  ],
  "solcInputHash": "1f18ffbef8daf75cd496eba588384830",
  "bytecode": "0x60806040523480156200001157600080fd5b5060405162001cc738038062001cc7833981016040819052620000349162000291565b8451859085906200004d90600390602085019062000117565b5080516200006390600490602084019062000117565b505050620000806200007a620000c160201b60201c565b620000c5565b6001600655600780546001600160a01b039485166001600160a01b0319918216179091556008805493909416921691909117909155600955506200037d9050565b3390565b600580546001600160a01b038381166001600160a01b0319831681179093556040519116919082907f8be0079c531659141344cd1fd0a4f28419497f9722a3daafe3b4186f6b6457e090600090a35050565b82805462000125906200032a565b90600052602060002090601f01602090048101928262000149576000855562000194565b82601f106200016457805160ff191683800117855562000194565b8280016001018555821562000194579182015b828111156200019457825182559160200191906001019062000177565b50620001a2929150620001a6565b5090565b5b80821115620001a25760008155600101620001a7565b80516001600160a01b0381168114620001d557600080fd5b919050565b600082601f830112620001ec57600080fd5b81516001600160401b038082111562000209576200020962000367565b604051601f8301601f19908116603f0116810190828211818310171562000234576200023462000367565b816040528381526020925086838588010111156200025157600080fd5b600091505b8382101562000275578582018301518183018401529082019062000256565b83821115620002875760008385830101525b9695505050505050565b600080600080600060a08688031215620002aa57600080fd5b85516001600160401b0380821115620002c257600080fd5b620002d089838a01620001da565b96506020880151915080821115620002e757600080fd5b50620002f688828901620001da565b9450506200030760408701620001bd565b92506200031760608701620001bd565b9150608086015190509295509295909350565b600181811c908216806200033f57607f821691505b602082108114156200036157634e487b7160e01b600052602260045260246000fd5b50919050565b634e487b7160e01b600052604160045260246000fd5b61193a806200038d6000396000f3fe608060405234801561001057600080fd5b50600436106101a95760003560e01c8063715018a6116100f9578063c12327b811610097578063f2fde38b11610071578063f2fde38b146103d8578063f46eccc4146103eb578063fc0c546a1461040e578063fca3b5aa1461042157600080fd5b8063c12327b81461034b578063dd62ed3e1461038c578063f0f44260146103c557600080fd5b8063a457c2d7116100d3578063a457c2d7146102ed578063a9059cbb14610300578063b425f80214610313578063be040fb01461034357600080fd5b8063715018a6146102cc5780638da5cb5b146102d457806395d89b41146102e557600080fd5b8063395093511161016657806361d027b31161014057806361d027b31461025c5780636c9996831461028757806370a08231146102905780637102b728146102b957600080fd5b8063395093511461022d57806340c10f191461024057806357c2c2ba1461025357600080fd5b806306fdde03146101ae578063095ea7b3146101cc57806318160ddd146101ef57806323b872dd146102015780632f4350c214610214578063313ce5671461021e575b600080fd5b6101b6610434565b6040516101c391906117c9565b60405180910390f35b6101df6101da36600461177d565b6104c6565b60405190151581526020016101c3565b6002545b6040519081526020016101c3565b6101df61020f366004611741565b6104dc565b61021c61058b565b005b604051601281526020016101c3565b6101df61023b36600461177d565b6108db565b6101df61024e36600461177d565b610917565b6101f360095481565b60085461026f906001600160a01b031681565b6040516001600160a01b0390911681526020016101c3565b6101f3600a5481565b6101f361029e3660046116ec565b6001600160a01b031660009081526020819052604090205490565b6101f36102c73660046116ec565b610a10565b61021c610b04565b6005546001600160a01b031661026f565b6101b6610b3a565b6101df6102fb36600461177d565b610b49565b6101df61030e36600461177d565b610be2565b61032661032136600461177d565b610bef565b604080519283526001600160401b039091166020830152016101c3565b61021c610c34565b6103746103593660046116ec565b600c602052600090815260409020546001600160401b031681565b6040516001600160401b0390911681526020016101c3565b6101f361039a36600461170e565b6001600160a01b03918216600090815260016020908152604080832093909416825291909152205490565b61021c6103d33660046116ec565b610f48565b61021c6103e63660046116ec565b610f94565b6101df6103f93660046116ec565b600b6020526000908152604090205460ff1681565b60075461026f906001600160a01b031681565b61021c61042f3660046116ec565b61102f565b60606003805461044390611882565b80601f016020809104026020016040519081016040528092919081815260200182805461046f90611882565b80156104bc5780601f10610491576101008083540402835291602001916104bc565b820191906000526020600020905b81548152906001019060200180831161049f57829003601f168201915b5050505050905090565b60006104d33384846110be565b50600192915050565b60006104e98484846111e2565b6001600160a01b0384166000908152600160209081526040808320338452909152902054828110156105735760405162461bcd60e51b815260206004820152602860248201527f45524332303a207472616e7366657220616d6f756e74206578636565647320616044820152676c6c6f77616e636560c01b60648201526084015b60405180910390fd5b61058085338584036110be565b506001949350505050565b600260065414156105de5760405162461bcd60e51b815260206004820152601f60248201527f5265656e7472616e637947756172643a207265656e7472616e742063616c6c00604482015260640161056a565b6002600655336000908152600d6020908152604080832054600c909252909120546001600160401b031680821161064d5760405162461bcd60e51b8152602060048201526013602482015272105b1b081d1bdad95b9cc81c995919595b5959606a1b604482015260640161056a565b600080825b8481101561070a57336000908152600d6020526040902080544291908390811061067e5761067e6118ee565b60009182526020909120600160029092020101546001600160401b031610156106f357336000908152600d602052604090208054829081106106c2576106c26118ee565b906000526020600020906002020160000154836106df9190611853565b92506106ec600183611853565b91506106f8565b61070a565b80610702816118bd565b915050610652565b50600082116107515760405162461bcd60e51b81526020600482015260136024820152724e6f20746f6b656e7320746f2072656465656d60681b604482015260640161056a565b336000908152602081905260409020548083111561076d578092505b6107778285611853565b336000908152600c60205260408120805467ffffffffffffffff19166001600160401b039390931692909217909155600a80548592906107b8908490611853565b909155506107c890503384611282565b6007546008546040516323b872dd60e01b81526001600160a01b039182166004820152336024820152604481018690529116906323b872dd90606401602060405180830381600087803b15801561081e57600080fd5b505af1158015610832573d6000803e3d6000fd5b505050506040513d601f19601f8201168201806040525081019061085691906117a7565b61089a5760405162461bcd60e51b8152602060048201526015602482015274151bdad95b881d1c985b9cd9995c8819985a5b1959605a1b604482015260640161056a565b60405183815233907f4896181ff8f4543cc00db9fe9b6fb7e6f032b7eb772c72ab1ec1b4d2e03b93699060200160405180910390a250506001600655505050565b3360008181526001602090815260408083206001600160a01b038716845290915281205490916104d3918590610912908690611853565b6110be565b336000908152600b602052604081205460ff166109765760405162461bcd60e51b815260206004820152601a60248201527f4d696e74696e67207065726d697373696f6e732064656e696564000000000000604482015260640161056a565b600d6000846001600160a01b03166001600160a01b031681526020019081526020016000206040518060400160405280848152602001600954426109ba9190611853565b6001600160401b039081169091528254600181810185556000948552602094859020845160029093020191825593909201519190920180549190921667ffffffffffffffff199091161790556104d383836113d0565b6001600160a01b0381166000908152600d6020908152604080832054600c9092528220546001600160401b0316805b82811015610afc576001600160a01b0385166000908152600d60205260409020805442919083908110610a7457610a746118ee565b60009182526020909120600160029092020101546001600160401b03161015610ae5576001600160a01b0385166000908152600d60205260409020805482908110610ac157610ac16118ee565b90600052602060002090600202016000015484610ade9190611853565b9350610aea565b610afc565b80610af4816118bd565b915050610a3f565b505050919050565b6005546001600160a01b03163314610b2e5760405162461bcd60e51b815260040161056a9061181e565b610b3860006114af565b565b60606004805461044390611882565b3360009081526001602090815260408083206001600160a01b038616845290915281205482811015610bcb5760405162461bcd60e51b815260206004820152602560248201527f45524332303a2064656372656173656420616c6c6f77616e63652062656c6f77604482015264207a65726f60d81b606482015260840161056a565b610bd833858584036110be565b5060019392505050565b60006104d33384846111e2565b600d6020528160005260406000208181548110610c0b57600080fd5b6000918252602090912060029091020180546001909101549092506001600160401b0316905082565b60026006541415610c875760405162461bcd60e51b815260206004820152601f60248201527f5265656e7472616e637947756172643a207265656e7472616e742063616c6c00604482015260640161056a565b6002600655336000908152600d6020908152604080832054600c909252909120546001600160401b0316808211610cf65760405162461bcd60e51b8152602060048201526013602482015272105b1b081d1bdad95b9cc81c995919595b5959606a1b604482015260640161056a565b336000908152600d60205260409020805442919083908110610d1a57610d1a6118ee565b60009182526020909120600160029092020101546001600160401b031610610d7a5760405162461bcd60e51b8152602060048201526013602482015272151bdad95b9cc81cdd1a5b1b081b1bd8dad959606a1b604482015260640161056a565b336000908152600d60205260408120805483908110610d9b57610d9b6118ee565b600091825260208220600290910201549150610dcc336001600160a01b031660009081526020819052604090205490565b905080821115610dda578091505b610de5836001611853565b336000908152600c60205260408120805467ffffffffffffffff19166001600160401b039390931692909217909155600a8054849290610e26908490611853565b90915550610e3690503383611282565b6007546008546040516323b872dd60e01b81526001600160a01b039182166004820152336024820152604481018590529116906323b872dd90606401602060405180830381600087803b158015610e8c57600080fd5b505af1158015610ea0573d6000803e3d6000fd5b505050506040513d601f19601f82011682018060405250810190610ec491906117a7565b610f085760405162461bcd60e51b8152602060048201526015602482015274151bdad95b881d1c985b9cd9995c8819985a5b1959605a1b604482015260640161056a565b60405182815233907f4896181ff8f4543cc00db9fe9b6fb7e6f032b7eb772c72ab1ec1b4d2e03b93699060200160405180910390a2505060016006555050565b6005546001600160a01b03163314610f725760405162461bcd60e51b815260040161056a9061181e565b600880546001600160a01b0319166001600160a01b0392909216919091179055565b6005546001600160a01b03163314610fbe5760405162461bcd60e51b815260040161056a9061181e565b6001600160a01b0381166110235760405162461bcd60e51b815260206004820152602660248201527f4f776e61626c653a206e6577206f776e657220697320746865207a65726f206160448201526564647265737360d01b606482015260840161056a565b61102c816114af565b50565b6005546001600160a01b031633146110595760405162461bcd60e51b815260040161056a9061181e565b6001600160a01b0381166000818152600b6020908152604091829020805460ff8116801560ff199092168217909255925192835292917fb21afb9ce9be0a676f8f317ff0ca072fb89a4f8ce2d1b6fe80f8755c14f1cb19910160405180910390a25050565b6001600160a01b0383166111205760405162461bcd60e51b8152602060048201526024808201527f45524332303a20617070726f76652066726f6d20746865207a65726f206164646044820152637265737360e01b606482015260840161056a565b6001600160a01b0382166111815760405162461bcd60e51b815260206004820152602260248201527f45524332303a20617070726f766520746f20746865207a65726f206164647265604482015261737360f01b606482015260840161056a565b6001600160a01b0383811660008181526001602090815260408083209487168084529482529182902085905590518481527f8c5be1e5ebec7d5bd14f71427d1e84f3dd0314c0f7b2291e5b200ac8c7c3b925910160405180910390a3505050565b600d6000836001600160a01b03166001600160a01b031681526020019081526020016000206040518060400160405280838152602001600954426112269190611853565b6001600160401b039081169091528254600181810185556000948552602094859020845160029093020191825593909201519190920180549190921667ffffffffffffffff1990911617905561127d838383611501565b505050565b6001600160a01b0382166112e25760405162461bcd60e51b815260206004820152602160248201527f45524332303a206275726e2066726f6d20746865207a65726f206164647265736044820152607360f81b606482015260840161056a565b6001600160a01b038216600090815260208190526040902054818110156113565760405162461bcd60e51b815260206004820152602260248201527f45524332303a206275726e20616d6f756e7420657863656564732062616c616e604482015261636560f01b606482015260840161056a565b6001600160a01b038316600090815260208190526040812083830390556002805484929061138590849061186b565b90915550506040518281526000906001600160a01b038516907fddf252ad1be2c89b69c2b068fc378daa952ba7f163c4a11628f55a4df523b3ef9060200160405180910390a3505050565b6001600160a01b0382166114265760405162461bcd60e51b815260206004820152601f60248201527f45524332303a206d696e7420746f20746865207a65726f206164647265737300604482015260640161056a565b80600260008282546114389190611853565b90915550506001600160a01b03821660009081526020819052604081208054839290611465908490611853565b90915550506040518181526001600160a01b038316906000907fddf252ad1be2c89b69c2b068fc378daa952ba7f163c4a11628f55a4df523b3ef9060200160405180910390a35050565b600580546001600160a01b038381166001600160a01b0319831681179093556040519116919082907f8be0079c531659141344cd1fd0a4f28419497f9722a3daafe3b4186f6b6457e090600090a35050565b6001600160a01b0383166115655760405162461bcd60e51b815260206004820152602560248201527f45524332303a207472616e736665722066726f6d20746865207a65726f206164604482015264647265737360d81b606482015260840161056a565b6001600160a01b0382166115c75760405162461bcd60e51b815260206004820152602360248201527f45524332303a207472616e7366657220746f20746865207a65726f206164647260448201526265737360e81b606482015260840161056a565b6001600160a01b0383166000908152602081905260409020548181101561163f5760405162461bcd60e51b815260206004820152602660248201527f45524332303a207472616e7366657220616d6f756e7420657863656564732062604482015265616c616e636560d01b606482015260840161056a565b6001600160a01b03808516600090815260208190526040808220858503905591851681529081208054849290611676908490611853565b92505081905550826001600160a01b0316846001600160a01b03167fddf252ad1be2c89b69c2b068fc378daa952ba7f163c4a11628f55a4df523b3ef846040516116c291815260200190565b60405180910390a350505050565b80356001600160a01b03811681146116e757600080fd5b919050565b6000602082840312156116fe57600080fd5b611707826116d0565b9392505050565b6000806040838503121561172157600080fd5b61172a836116d0565b9150611738602084016116d0565b90509250929050565b60008060006060848603121561175657600080fd5b61175f846116d0565b925061176d602085016116d0565b9150604084013590509250925092565b6000806040838503121561179057600080fd5b611799836116d0565b946020939093013593505050565b6000602082840312156117b957600080fd5b8151801515811461170757600080fd5b600060208083528351808285015260005b818110156117f6578581018301518582016040015282016117da565b81811115611808576000604083870101525b50601f01601f1916929092016040019392505050565b6020808252818101527f4f776e61626c653a2063616c6c6572206973206e6f7420746865206f776e6572604082015260600190565b60008219821115611866576118666118d8565b500190565b60008282101561187d5761187d6118d8565b500390565b600181811c9082168061189657607f821691505b602082108114156118b757634e487b7160e01b600052602260045260246000fd5b50919050565b60006000198214156118d1576118d16118d8565b5060010190565b634e487b7160e01b600052601160045260246000fd5b634e487b7160e01b600052603260045260246000fdfea2646970667358221220c6b04367aa47544c83c1674909e194fa2fe3d0025aa5a619cb90900313e5e80264736f6c63430008070033",
  "devdoc": {
    "kind": "dev",
    "methods": {
      "allowance(address,address)": {
        "details": "See {IERC20-allowance}."
      },
      "approve(address,uint256)": {
        "details": "See {IERC20-approve}. Requirements: - `spender` cannot be the zero address."
      },
      "balanceOf(address)": {
        "details": "See {IERC20-balanceOf}."
      },
      "decimals()": {
        "details": "Returns the number of decimals used to get its user representation. For example, if `decimals` equals `2`, a balance of `505` tokens should be displayed to a user as `5.05` (`505 / 10 ** 2`). Tokens usually opt for a value of 18, imitating the relationship between Ether and Wei. This is the value {ERC20} uses, unless this function is overridden; NOTE: This information is only used for _display_ purposes: it in no way affects any of the arithmetic of the contract, including {IERC20-balanceOf} and {IERC20-transfer}."
      },
      "decreaseAllowance(address,uint256)": {
        "details": "Atomically decreases the allowance granted to `spender` by the caller. This is an alternative to {approve} that can be used as a mitigation for problems described in {IERC20-approve}. Emits an {Approval} event indicating the updated allowance. Requirements: - `spender` cannot be the zero address. - `spender` must have allowance for the caller of at least `subtractedValue`."
      },
      "increaseAllowance(address,uint256)": {
        "details": "Atomically increases the allowance granted to `spender` by the caller. This is an alternative to {approve} that can be used as a mitigation for problems described in {IERC20-approve}. Emits an {Approval} event indicating the updated allowance. Requirements: - `spender` cannot be the zero address."
      },
      "name()": {
        "details": "Returns the name of the token."
      },
      "owner()": {
        "details": "Returns the address of the current owner."
      },
      "renounceOwnership()": {
        "details": "Leaves the contract without owner. It will not be possible to call `onlyOwner` functions anymore. Can only be called by the current owner. NOTE: Renouncing ownership will leave the contract without an owner, thereby removing any functionality that is only available to the owner."
      },
      "symbol()": {
        "details": "Returns the symbol of the token, usually a shorter version of the name."
      },
      "totalSupply()": {
        "details": "See {IERC20-totalSupply}."
      },
      "transfer(address,uint256)": {
        "details": "See {IERC20-transfer}. Requirements: - `recipient` cannot be the zero address. - the caller must have a balance of at least `amount`."
      },
      "transferFrom(address,address,uint256)": {
        "details": "See {IERC20-transferFrom}. Emits an {Approval} event indicating the updated allowance. This is not required by the EIP. See the note at the beginning of {ERC20}. Requirements: - `sender` and `recipient` cannot be the zero address. - `sender` must have a balance of at least `amount`. - the caller must have allowance for ``sender``'s tokens of at least `amount`."
      },
      "transferOwnership(address)": {
        "details": "Transfers ownership of the contract to a new account (`newOwner`). Can only be called by the current owner."
      }
    },
    "version": 1
  },
  "userdoc": {
    "kind": "user",
    "methods": {},
    "version": 1
  },
  "storageLayout": {
    "storage": [
      {
        "astId": 159,
        "contract": "contracts/OhEscrow.sol:OhEscrow",
        "label": "_balances",
        "offset": 0,
        "slot": "0",
        "type": "t_mapping(t_address,t_uint256)"
      },
      {
        "astId": 165,
        "contract": "contracts/OhEscrow.sol:OhEscrow",
        "label": "_allowances",
        "offset": 0,
        "slot": "1",
        "type": "t_mapping(t_address,t_mapping(t_address,t_uint256))"
      },
      {
        "astId": 167,
        "contract": "contracts/OhEscrow.sol:OhEscrow",
        "label": "_totalSupply",
        "offset": 0,
        "slot": "2",
        "type": "t_uint256"
      },
      {
        "astId": 169,
        "contract": "contracts/OhEscrow.sol:OhEscrow",
        "label": "_name",
        "offset": 0,
        "slot": "3",
        "type": "t_string_storage"
      },
      {
        "astId": 171,
        "contract": "contracts/OhEscrow.sol:OhEscrow",
        "label": "_symbol",
        "offset": 0,
        "slot": "4",
        "type": "t_string_storage"
      },
      {
        "astId": 7,
        "contract": "contracts/OhEscrow.sol:OhEscrow",
        "label": "_owner",
        "offset": 0,
        "slot": "5",
        "type": "t_address"
      },
      {
        "astId": 114,
        "contract": "contracts/OhEscrow.sol:OhEscrow",
        "label": "_status",
        "offset": 0,
        "slot": "6",
        "type": "t_uint256"
      },
      {
        "astId": 1350,
        "contract": "contracts/OhEscrow.sol:OhEscrow",
        "label": "token",
        "offset": 0,
        "slot": "7",
        "type": "t_contract(IERC20)767"
      },
      {
        "astId": 1352,
        "contract": "contracts/OhEscrow.sol:OhEscrow",
        "label": "treasury",
        "offset": 0,
        "slot": "8",
        "type": "t_address"
      },
      {
        "astId": 1354,
        "contract": "contracts/OhEscrow.sol:OhEscrow",
        "label": "escrowDuration",
        "offset": 0,
        "slot": "9",
        "type": "t_uint256"
      },
      {
        "astId": 1356,
        "contract": "contracts/OhEscrow.sol:OhEscrow",
        "label": "redeemedRewards",
        "offset": 0,
        "slot": "10",
        "type": "t_uint256"
      },
      {
        "astId": 1360,
        "contract": "contracts/OhEscrow.sol:OhEscrow",
        "label": "minters",
        "offset": 0,
        "slot": "11",
        "type": "t_mapping(t_address,t_bool)"
      },
      {
        "astId": 1364,
        "contract": "contracts/OhEscrow.sol:OhEscrow",
        "label": "counter",
        "offset": 0,
        "slot": "12",
        "type": "t_mapping(t_address,t_uint64)"
      },
      {
        "astId": 1370,
        "contract": "contracts/OhEscrow.sol:OhEscrow",
        "label": "locks",
        "offset": 0,
        "slot": "13",
        "type": "t_mapping(t_address,t_array(t_struct(Lock)1375_storage)dyn_storage)"
      }
    ],
    "types": {
      "t_address": {
        "encoding": "inplace",
        "label": "address",
        "numberOfBytes": "20"
      },
      "t_array(t_struct(Lock)1375_storage)dyn_storage": {
        "base": "t_struct(Lock)1375_storage",
        "encoding": "dynamic_array",
        "label": "struct OhEscrow.Lock[]",
        "numberOfBytes": "32"
      },
      "t_bool": {
        "encoding": "inplace",
        "label": "bool",
        "numberOfBytes": "1"
      },
      "t_contract(IERC20)767": {
        "encoding": "inplace",
        "label": "contract IERC20",
        "numberOfBytes": "20"
      },
      "t_mapping(t_address,t_array(t_struct(Lock)1375_storage)dyn_storage)": {
        "encoding": "mapping",
        "key": "t_address",
        "label": "mapping(address => struct OhEscrow.Lock[])",
        "numberOfBytes": "32",
        "value": "t_array(t_struct(Lock)1375_storage)dyn_storage"
      },
      "t_mapping(t_address,t_bool)": {
        "encoding": "mapping",
        "key": "t_address",
        "label": "mapping(address => bool)",
        "numberOfBytes": "32",
        "value": "t_bool"
      },
      "t_mapping(t_address,t_mapping(t_address,t_uint256))": {
        "encoding": "mapping",
        "key": "t_address",
        "label": "mapping(address => mapping(address => uint256))",
        "numberOfBytes": "32",
        "value": "t_mapping(t_address,t_uint256)"
      },
      "t_mapping(t_address,t_uint256)": {
        "encoding": "mapping",
        "key": "t_address",
        "label": "mapping(address => uint256)",
        "numberOfBytes": "32",
        "value": "t_uint256"
      },
      "t_mapping(t_address,t_uint64)": {
        "encoding": "mapping",
        "key": "t_address",
        "label": "mapping(address => uint64)",
        "numberOfBytes": "32",
        "value": "t_uint64"
      },
      "t_string_storage": {
        "encoding": "bytes",
        "label": "string",
        "numberOfBytes": "32"
      },
      "t_struct(Lock)1375_storage": {
        "encoding": "inplace",
        "label": "struct OhEscrow.Lock",
        "members": [
          {
            "astId": 1372,
            "contract": "contracts/OhEscrow.sol:OhEscrow",
            "label": "amount",
            "offset": 0,
            "slot": "0",
            "type": "t_uint256"
          },
          {
            "astId": 1374,
            "contract": "contracts/OhEscrow.sol:OhEscrow",
            "label": "end",
            "offset": 0,
            "slot": "1",
            "type": "t_uint64"
          }
        ],
        "numberOfBytes": "64"
      },
      "t_uint256": {
        "encoding": "inplace",
        "label": "uint256",
        "numberOfBytes": "32"
      },
      "t_uint64": {
        "encoding": "inplace",
        "label": "uint64",
        "numberOfBytes": "8"
      }
    }
  }
}