{
  "address": "0x880491180789B91Aa0918d934AcF479e5eD0EA6a",
  "abi": [
    {
      "inputs": [
        {
          "internalType": "string",
          "name": "name",
          "type": "string"
        },
        {
          "internalType": "string",
          "name": "symbol",
          "type": "string"
        },
        {
          "internalType": "address",
          "name": "_token",
          "type": "address"
        },
        {
          "internalType": "address",
          "name": "_escrow",
          "type": "address"
        },
        {
          "internalType": "uint256",
          "name": "_maxBonus",
          "type": "uint256"
        },
        {
          "internalType": "uint256",
          "name": "_maxLockDuration",
          "type": "uint256"
        },
        {
          "internalType": "uint256",
          "name": "_startRewards",
          "type": "uint256"
        }
      ],
      "stateMutability": "nonpayable",
      "type": "constructor"
    },
    {
      "anonymous": false,
      "inputs": [
        {
          "indexed": true,
          "internalType": "address",
          "name": "owner",
          "type": "address"
        },
        {
          "indexed": true,
          "internalType": "address",
          "name": "spender",
          "type": "address"
        },
        {
          "indexed": false,
          "internalType": "uint256",
          "name": "value",
          "type": "uint256"
        }
      ],
      "name": "Approval",
      "type": "event"
    },
    {
      "anonymous": false,
      "inputs": [
        {
          "indexed": true,
          "internalType": "address",
          "name": "previousOwner",
          "type": "address"
        },
        {
          "indexed": true,
          "internalType": "address",
          "name": "newOwner",
          "type": "address"
        }
      ],
      "name": "OwnershipTransferred",
      "type": "event"
    },
    {
      "anonymous": false,
      "inputs": [
        {
          "indexed": false,
          "internalType": "uint256",
          "name": "rewardRate",
          "type": "uint256"
        },
        {
          "indexed": false,
          "internalType": "uint256",
          "name": "duration",
          "type": "uint256"
        }
      ],
      "name": "RewardAmountSet",
      "type": "event"
    },
    {
      "anonymous": false,
      "inputs": [
        {
          "indexed": true,
          "internalType": "address",
          "name": "user",
          "type": "address"
        },
        {
          "indexed": false,
          "internalType": "uint256",
          "name": "rewardsClaimed",
          "type": "uint256"
        }
      ],
      "name": "RewardsClaimed",
      "type": "event"
    },
    {
      "anonymous": false,
      "inputs": [
        {
          "indexed": true,
          "internalType": "address",
          "name": "user",
          "type": "address"
        },
        {
          "indexed": false,
          "internalType": "uint256",
          "name": "amountStaked",
          "type": "uint256"
        }
      ],
      "name": "Staked",
      "type": "event"
    },
    {
      "anonymous": false,
      "inputs": [
        {
          "indexed": true,
          "internalType": "address",
          "name": "from",
          "type": "address"
        },
        {
          "indexed": true,
          "internalType": "address",
          "name": "to",
          "type": "address"
        },
        {
          "indexed": false,
          "internalType": "uint256",
          "name": "value",
          "type": "uint256"
        }
      ],
      "name": "Transfer",
      "type": "event"
    },
    {
      "anonymous": false,
      "inputs": [
        {
          "indexed": true,
          "internalType": "address",
          "name": "user",
          "type": "address"
        },
        {
          "indexed": false,
          "internalType": "uint256",
          "name": "amountUnstaked",
          "type": "uint256"
        }
      ],
      "name": "Unstaked",
      "type": "event"
    },
    {
      "inputs": [
        {
          "internalType": "address",
          "name": "owner",
          "type": "address"
        },
        {
          "internalType": "address",
          "name": "spender",
          "type": "address"
        }
      ],
      "name": "allowance",
      "outputs": [
        {
          "internalType": "uint256",
          "name": "",
          "type": "uint256"
        }
      ],
      "stateMutability": "view",
      "type": "function"
    },
    {
      "inputs": [
        {
          "internalType": "address",
          "name": "spender",
          "type": "address"
        },
        {
          "internalType": "uint256",
          "name": "amount",
          "type": "uint256"
        }
      ],
      "name": "approve",
      "outputs": [
        {
          "internalType": "bool",
          "name": "",
          "type": "bool"
        }
      ],
      "stateMutability": "nonpayable",
      "type": "function"
    },
    {
      "inputs": [
        {
          "internalType": "address",
          "name": "account",
          "type": "address"
        }
      ],
      "name": "balanceOf",
      "outputs": [
        {
          "internalType": "uint256",
          "name": "",
          "type": "uint256"
        }
      ],
      "stateMutability": "view",
      "type": "function"
    },
    {
      "inputs": [],
      "name": "claim",
      "outputs": [],
      "stateMutability": "nonpayable",
      "type": "function"
    },
    {
      "inputs": [],
      "name": "claimedRewards",
      "outputs": [
        {
          "internalType": "uint256",
          "name": "",
          "type": "uint256"
        }
      ],
      "stateMutability": "view",
      "type": "function"
    },
    {
      "inputs": [],
      "name": "decimals",
      "outputs": [
        {
          "internalType": "uint8",
          "name": "",
          "type": "uint8"
        }
      ],
      "stateMutability": "view",
      "type": "function"
    },
    {
      "inputs": [
        {
          "internalType": "address",
          "name": "spender",
          "type": "address"
        },
        {
          "internalType": "uint256",
          "name": "subtractedValue",
          "type": "uint256"
        }
      ],
      "name": "decreaseAllowance",
      "outputs": [
        {
          "internalType": "bool",
          "name": "",
          "type": "bool"
        }
      ],
      "stateMutability": "nonpayable",
      "type": "function"
    },
    {
      "inputs": [
        {
          "internalType": "address",
          "name": "",
          "type": "address"
        }
      ],
      "name": "deposits",
      "outputs": [
        {
          "internalType": "uint256",
          "name": "amount",
          "type": "uint256"
        },
        {
          "internalType": "uint64",
          "name": "start",
          "type": "uint64"
        },
        {
          "internalType": "uint64",
          "name": "end",
          "type": "uint64"
        }
      ],
      "stateMutability": "view",
      "type": "function"
    },
    {
      "inputs": [
        {
          "internalType": "address",
          "name": "account",
          "type": "address"
        }
      ],
      "name": "earned",
      "outputs": [
        {
          "internalType": "uint256",
          "name": "",
          "type": "uint256"
        }
      ],
      "stateMutability": "view",
      "type": "function"
    },
    {
      "inputs": [],
      "name": "escrow",
      "outputs": [
        {
          "internalType": "contract IEscrow",
          "name": "",
          "type": "address"
        }
      ],
      "stateMutability": "view",
      "type": "function"
    },
    {
      "inputs": [],
      "name": "exit",
      "outputs": [],
      "stateMutability": "nonpayable",
      "type": "function"
    },
    {
      "inputs": [
        {
          "internalType": "uint256",
          "name": "duration",
          "type": "uint256"
        }
      ],
      "name": "getMultiplier",
      "outputs": [
        {
          "internalType": "uint256",
          "name": "",
          "type": "uint256"
        }
      ],
      "stateMutability": "view",
      "type": "function"
    },
    {
      "inputs": [
        {
          "internalType": "address",
          "name": "spender",
          "type": "address"
        },
        {
          "internalType": "uint256",
          "name": "addedValue",
          "type": "uint256"
        }
      ],
      "name": "increaseAllowance",
      "outputs": [
        {
          "internalType": "bool",
          "name": "",
          "type": "bool"
        }
      ],
      "stateMutability": "nonpayable",
      "type": "function"
    },
    {
      "inputs": [],
      "name": "isKilled",
      "outputs": [
        {
          "internalType": "bool",
          "name": "",
          "type": "bool"
        }
      ],
      "stateMutability": "view",
      "type": "function"
    },
    {
      "inputs": [],
      "name": "kill",
      "outputs": [],
      "stateMutability": "nonpayable",
      "type": "function"
    },
    {
      "inputs": [],
      "name": "lastRewardTimestamp",
      "outputs": [
        {
          "internalType": "uint256",
          "name": "",
          "type": "uint256"
        }
      ],
      "stateMutability": "view",
      "type": "function"
    },
    {
      "inputs": [],
      "name": "lastUpdateTime",
      "outputs": [
        {
          "internalType": "uint256",
          "name": "",
          "type": "uint256"
        }
      ],
      "stateMutability": "view",
      "type": "function"
    },
    {
      "inputs": [],
      "name": "maxBonus",
      "outputs": [
        {
          "internalType": "uint256",
          "name": "",
          "type": "uint256"
        }
      ],
      "stateMutability": "view",
      "type": "function"
    },
    {
      "inputs": [],
      "name": "maxLockDuration",
      "outputs": [
        {
          "internalType": "uint256",
          "name": "",
          "type": "uint256"
        }
      ],
      "stateMutability": "view",
      "type": "function"
    },
    {
      "inputs": [],
      "name": "name",
      "outputs": [
        {
          "internalType": "string",
          "name": "",
          "type": "string"
        }
      ],
      "stateMutability": "view",
      "type": "function"
    },
    {
      "inputs": [],
      "name": "owner",
      "outputs": [
        {
          "internalType": "address",
          "name": "",
          "type": "address"
        }
      ],
      "stateMutability": "view",
      "type": "function"
    },
    {
      "inputs": [],
      "name": "renounceOwnership",
      "outputs": [],
      "stateMutability": "nonpayable",
      "type": "function"
    },
    {
      "inputs": [],
      "name": "rewardPerToken",
      "outputs": [
        {
          "internalType": "uint256",
          "name": "",
          "type": "uint256"
        }
      ],
      "stateMutability": "view",
      "type": "function"
    },
    {
      "inputs": [],
      "name": "rewardPerTokenStored",
      "outputs": [
        {
          "internalType": "uint256",
          "name": "",
          "type": "uint256"
        }
      ],
      "stateMutability": "view",
      "type": "function"
    },
    {
      "inputs": [],
      "name": "rewardRate",
      "outputs": [
        {
          "internalType": "uint256",
          "name": "",
          "type": "uint256"
        }
      ],
      "stateMutability": "view",
      "type": "function"
    },
    {
      "inputs": [
        {
          "internalType": "address",
          "name": "",
          "type": "address"
        }
      ],
      "name": "rewards",
      "outputs": [
        {
          "internalType": "uint256",
          "name": "",
          "type": "uint256"
        }
      ],
      "stateMutability": "view",
      "type": "function"
    },
    {
      "inputs": [],
      "name": "rewardsDuration",
      "outputs": [
        {
          "internalType": "uint256",
          "name": "",
          "type": "uint256"
        }
      ],
      "stateMutability": "view",
      "type": "function"
    },
    {
      "inputs": [
        {
          "internalType": "uint256",
          "name": "reward",
          "type": "uint256"
        },
        {
          "internalType": "uint256",
          "name": "_rewardsDuration",
          "type": "uint256"
        }
      ],
      "name": "setRewardAmount",
      "outputs": [],
      "stateMutability": "nonpayable",
      "type": "function"
    },
    {
      "inputs": [
        {
          "internalType": "uint256",
          "name": "_amount",
          "type": "uint256"
        },
        {
          "internalType": "uint256",
          "name": "_duration",
          "type": "uint256"
        }
      ],
      "name": "stake",
      "outputs": [],
      "stateMutability": "nonpayable",
      "type": "function"
    },
    {
      "inputs": [],
      "name": "startRewardsTime",
      "outputs": [
        {
          "internalType": "uint256",
          "name": "",
          "type": "uint256"
        }
      ],
      "stateMutability": "view",
      "type": "function"
    },
    {
      "inputs": [],
      "name": "symbol",
      "outputs": [
        {
          "internalType": "string",
          "name": "",
          "type": "string"
        }
      ],
      "stateMutability": "view",
      "type": "function"
    },
    {
      "inputs": [],
      "name": "token",
      "outputs": [
        {
          "internalType": "contract IERC20",
          "name": "",
          "type": "address"
        }
      ],
      "stateMutability": "view",
      "type": "function"
    },
    {
      "inputs": [],
      "name": "totalClaimed",
      "outputs": [
        {
          "internalType": "uint256",
          "name": "",
          "type": "uint256"
        }
      ],
      "stateMutability": "view",
      "type": "function"
    },
    {
      "inputs": [],
      "name": "totalSupply",
      "outputs": [
        {
          "internalType": "uint256",
          "name": "",
          "type": "uint256"
        }
      ],
      "stateMutability": "view",
      "type": "function"
    },
    {
      "inputs": [
        {
          "internalType": "address",
          "name": "recipient",
          "type": "address"
        },
        {
          "internalType": "uint256",
          "name": "amount",
          "type": "uint256"
        }
      ],
      "name": "transfer",
      "outputs": [
        {
          "internalType": "bool",
          "name": "",
          "type": "bool"
        }
      ],
      "stateMutability": "nonpayable",
      "type": "function"
    },
    {
      "inputs": [
        {
          "internalType": "address",
          "name": "sender",
          "type": "address"
        },
        {
          "internalType": "address",
          "name": "recipient",
          "type": "address"
        },
        {
          "internalType": "uint256",
          "name": "amount",
          "type": "uint256"
        }
      ],
      "name": "transferFrom",
      "outputs": [
        {
          "internalType": "bool",
          "name": "",
          "type": "bool"
        }
      ],
      "stateMutability": "nonpayable",
      "type": "function"
    },
    {
      "inputs": [
        {
          "internalType": "address",
          "name": "newOwner",
          "type": "address"
        }
      ],
      "name": "transferOwnership",
      "outputs": [],
      "stateMutability": "nonpayable",
      "type": "function"
    },
    {
      "inputs": [
        {
          "internalType": "uint256",
          "name": "_amount",
          "type": "uint256"
        }
      ],
      "name": "unstake",
      "outputs": [],
      "stateMutability": "nonpayable",
      "type": "function"
    },
    {
      "inputs": [
        {
          "internalType": "address",
          "name": "",
          "type": "address"
        }
      ],
      "name": "userRewardPerTokenPaid",
      "outputs": [
        {
          "internalType": "uint256",
          "name": "",
          "type": "uint256"
        }
      ],
      "stateMutability": "view",
      "type": "function"
    }
  ],
  "transactionHash": "0x93a7f6a1f6a727ee158c5c78dca86422d6bdbc8b4546f86aef6779cd3a29543b",
  "args": [
    "Staked Oh! Finance",
    "SOH",
    "0x6b461A994d76d8248a6B439D4a19cDfd821409eE",
    "0xd7eCfABca7D8b97697e2DE751b5092bDE4e04db7",
    "1000000000000000000",
    3600,
    60
  ],
  "solcInputHash": "e86e548c78b8a93c14139ff7afe7fde9",
  "bytecode": "0x60806040526008805460ff60a01b1916905560006009819055600a553480156200002857600080fd5b5060405162002255380380620022558339810160408190526200004b91620002c3565b8651879087906200006490600390602085019062000149565b5080516200007a90600490602084019062000149565b5050506200009762000091620000f360201b60201c565b620000f7565b6001600655600780546001600160a01b038088166001600160a01b031992831617909255600880549287169290911691909117905560108390556011829055620000e281426200036f565b600c5550620003e995505050505050565b3390565b600580546001600160a01b038381166001600160a01b0319831681179093556040519116919082907f8be0079c531659141344cd1fd0a4f28419497f9722a3daafe3b4186f6b6457e090600090a35050565b828054620001579062000396565b90600052602060002090601f0160209004810192826200017b5760008555620001c6565b82601f106200019657805160ff1916838001178555620001c6565b82800160010185558215620001c6579182015b82811115620001c6578251825591602001919060010190620001a9565b50620001d4929150620001d8565b5090565b5b80821115620001d45760008155600101620001d9565b80516001600160a01b03811681146200020757600080fd5b919050565b600082601f8301126200021e57600080fd5b81516001600160401b03808211156200023b576200023b620003d3565b604051601f8301601f19908116603f01168101908282118183101715620002665762000266620003d3565b816040528381526020925086838588010111156200028357600080fd5b600091505b83821015620002a7578582018301518183018401529082019062000288565b83821115620002b95760008385830101525b9695505050505050565b600080600080600080600060e0888a031215620002df57600080fd5b87516001600160401b0380821115620002f757600080fd5b620003058b838c016200020c565b985060208a01519150808211156200031c57600080fd5b506200032b8a828b016200020c565b9650506200033c60408901620001ef565b94506200034c60608901620001ef565b93506080880151925060a0880151915060c0880151905092959891949750929550565b600082198211156200039157634e487b7160e01b600052601160045260246000fd5b500190565b600181811c90821680620003ab57607f821691505b60208210811415620003cd57634e487b7160e01b600052602260045260246000fd5b50919050565b634e487b7160e01b600052604160045260246000fd5b611e5c80620003f96000396000f3fe608060405234801561001057600080fd5b506004361061023c5760003560e01c80637b0a47ee1161013b578063cd3daf9d116100b8578063e9fad8ee1161007c578063e9fad8ee146104b6578063f2fde38b146104be578063f8077fae146104d1578063fc0c546a146104da578063fc7e286d146104ed57600080fd5b8063cd3daf9d14610451578063d54ad2a114610459578063dd62ed3e14610461578063df136d651461049a578063e2fdcc17146104a357600080fd5b8063a16cdbb1116100ff578063a16cdbb114610406578063a457c2d71461040f578063a9059cbb14610422578063adf8252d14610435578063c8f33c911461044857600080fd5b80637b0a47ee1461039c5780638b876347146103a55780638da5cb5b146103c55780638fe8a101146103ea57806395d89b41146103fe57600080fd5b8063313ce567116101c95780635359b3ea1161018d5780635359b3ea1461033c57806354c5b6961461034f57806370a0823114610358578063715018a6146103815780637b0472f01461038957600080fd5b8063313ce56714610301578063386a952514610310578063395093511461031957806341c0e1b51461032c5780634e71d92d1461033457600080fd5b806318160ddd1161021057806318160ddd146102bf57806322e9c08d146102c757806323b80449146102d057806323b872dd146102d95780632e17de78146102ec57600080fd5b80628cc2621461024157806306fdde03146102675780630700037d1461027c578063095ea7b31461029c575b600080fd5b61025461024f366004611b5d565b61054f565b6040519081526020015b60405180910390f35b61026f6105cc565b60405161025e9190611c75565b61025461028a366004611b5d565b60136020526000908152604090205481565b6102af6102aa366004611bee565b61065e565b604051901515815260200161025e565b600254610254565b610254600b5481565b610254600c5481565b6102af6102e7366004611bb2565b610674565b6102ff6102fa366004611c3a565b610723565b005b6040516012815260200161025e565b610254600a5481565b6102af610327366004611bee565b61075d565b6102ff610799565b6102ff610828565b6102ff61034a366004611c53565b6108bf565b61025460105481565b610254610366366004611b5d565b6001600160a01b031660009081526020819052604090205490565b6102ff6109d2565b6102ff610397366004611c53565b610a08565b61025460095481565b6102546103b3366004611b5d565b60126020526000908152604090205481565b6005546001600160a01b03165b6040516001600160a01b03909116815260200161025e565b6008546102af90600160a01b900460ff1681565b61026f610a3b565b61025460115481565b6102af61041d366004611bee565b610a4a565b6102af610430366004611bee565b610ae3565b610254610443366004611c3a565b610af0565b610254600d5481565b610254610b33565b600b54610254565b61025461046f366004611b7f565b6001600160a01b03918216600090815260016020908152604080832093909416825291909152205490565b610254600f5481565b6008546103d2906001600160a01b031681565b6102ff610bae565b6102ff6104cc366004611b5d565b610c00565b610254600e5481565b6007546103d2906001600160a01b031681565b6105296104fb366004611b5d565b6014602052600090815260409020805460019091015467ffffffffffffffff80821691600160401b90041683565b6040805193845267ffffffffffffffff928316602085015291169082015260600161025e565b6001600160a01b0381166000908152601360209081526040808320546012909252822054670de0b6b3a764000090610585610b33565b61058f9190611dbe565b6001600160a01b0385166000908152602081905260409020546105b29190611d9f565b6105bc9190611d7d565b6105c69190611d65565b92915050565b6060600380546105db90611dd5565b80601f016020809104026020016040519081016040528092919081815260200182805461060790611dd5565b80156106545780601f1061062957610100808354040283529160200191610654565b820191906000526020600020905b81548152906001019060200180831161063757829003601f168201915b5050505050905090565b600061066b338484610c9b565b50600192915050565b6000610681848484610dc0565b6001600160a01b03841660009081526001602090815260408083203384529091529020548281101561070b5760405162461bcd60e51b815260206004820152602860248201527f45524332303a207472616e7366657220616d6f756e74206578636565647320616044820152676c6c6f77616e636560c01b60648201526084015b60405180910390fd5b6107188533858403610c9b565b506001949350505050565b600260065414156107465760405162461bcd60e51b815260040161070290611d2e565b60026006556107553382610f06565b506001600655565b3360008181526001602090815260408083206001600160a01b0387168452909152812054909161066b918590610794908690611d65565b610c9b565b6005546001600160a01b031633146107c35760405162461bcd60e51b815260040161070290611cf9565b600854600160a01b900460ff16156108135760405162461bcd60e51b8152602060048201526013602482015272141bdbdb08185b1c9958591e481ada5b1b1959606a1b6044820152606401610702565b6008805460ff60a01b1916600160a01b179055565b6002600654141561084b5760405162461bcd60e51b815260040161070290611d2e565b600260065533600061085b610b33565b600f819055905061086a6111c1565b600d556001600160a01b038216156108ad576108858261054f565b6001600160a01b03831660009081526013602090815260408083209390935560129052208190555b6108b6336111d9565b50506001600655565b6005546001600160a01b031633146108e95760405162461bcd60e51b815260040161070290611cf9565b6000806108f4610b33565b600f81905590506109036111c1565b600d556001600160a01b038216156109465761091e8261054f565b6001600160a01b03831660009081526013602090815260408083209390935560129052208190555b600a8390556109558385611d7d565b60095542600d819055600c54111561097f57600a54600c546109779190611d65565b600e55610990565b600a5461098c9042611d65565b600e555b60095460408051918252602082018590527f53ec5ac14ec827c0859f27c3d22f4ea8c29f6d64cbe2f92aeb55210ce6f89b35910160405180910390a150505050565b6005546001600160a01b031633146109fc5760405162461bcd60e51b815260040161070290611cf9565b610a066000611314565b565b60026006541415610a2b5760405162461bcd60e51b815260040161070290611d2e565b60026006556108b6338383611366565b6060600480546105db90611dd5565b3360009081526001602090815260408083206001600160a01b038616845290915281205482811015610acc5760405162461bcd60e51b815260206004820152602560248201527f45524332303a2064656372656173656420616c6c6f77616e63652062656c6f77604482015264207a65726f60d81b6064820152608401610702565b610ad93385858403610c9b565b5060019392505050565b600061066b338484610dc0565b600081610b065750670de0b6b3a7640000919050565b60115482601054610b179190611d9f565b610b219190611d7d565b6105c690670de0b6b3a7640000611d65565b6000610b3e60025490565b1580610b4b5750600c5442105b15610b565750600090565b600254610b61611732565b610b696111c1565b610b739190611dbe565b600954610b809190611d9f565b610b9290670de0b6b3a7640000611d9f565b610b9c9190611d7d565b600f54610ba99190611d65565b905090565b60026006541415610bd15760405162461bcd60e51b815260040161070290611d2e565b600260065533600081815260146020526040902054610bf09190610f06565b610bf9336111d9565b6001600655565b6005546001600160a01b03163314610c2a5760405162461bcd60e51b815260040161070290611cf9565b6001600160a01b038116610c8f5760405162461bcd60e51b815260206004820152602660248201527f4f776e61626c653a206e6577206f776e657220697320746865207a65726f206160448201526564647265737360d01b6064820152608401610702565b610c9881611314565b50565b6001600160a01b038316610cfd5760405162461bcd60e51b8152602060048201526024808201527f45524332303a20617070726f76652066726f6d20746865207a65726f206164646044820152637265737360e01b6064820152608401610702565b6001600160a01b038216610d5e5760405162461bcd60e51b815260206004820152602260248201527f45524332303a20617070726f766520746f20746865207a65726f206164647265604482015261737360f01b6064820152608401610702565b6001600160a01b0383811660008181526001602090815260408083209487168084529482529182902085905590518481527f8c5be1e5ebec7d5bd14f71427d1e84f3dd0314c0f7b2291e5b200ac8c7c3b92591015b60405180910390a3505050565b6001600160a01b038316600090815260146020526040902060010154600160401b900467ffffffffffffffff168015610ef5576001600160a01b03841660009081526014602052604081208054600190910154909167ffffffffffffffff90911690670de0b6b3a7640000610e386104438487611dbe565b610e429190611d7d565b610e4c9084611d7d565b9050610e588184611dbe565b6001600160a01b038816600090815260146020526040902055610e7b8184611dbe565b610ea9576001600160a01b038716600090815260146020526040902060010180546001600160801b03191690555b6001600160a01b0386166000908152601460205260409020908155600101805467ffffffffffffffff858116600160401b026001600160801b0319909216931692909217919091179055505b610f0084848461174e565b50505050565b816000610f11610b33565b600f8190559050610f206111c1565b600d556001600160a01b03821615610f6357610f3b8261054f565b6001600160a01b03831660009081526013602090815260408083209390935560129052208190555b60008311610fb35760405162461bcd60e51b815260206004820152601860248201527f4d757374207769746864726177203e203020746f6b656e7300000000000000006044820152606401610702565b6001600160a01b0384166000908152601460205260409020805460019091015460085467ffffffffffffffff80831692600160401b90041690600160a01b900460ff1661103f5742811061103f5760405162461bcd60e51b8152602060048201526013602482015272151bdad95b9cc81cdd1a5b1b081b1bd8dad959606a1b6044820152606401610702565b6000670de0b6b3a76400006110576104438585611dbe565b6110619089611d9f565b61106b9190611d7d565b90506110778785611dbe565b6001600160a01b03891660009081526014602052604090205561109a8785611dbe565b6110c8576001600160a01b038816600090815260146020526040902060010180546001600160801b03191690555b6110d2888261191c565b60075460405163a9059cbb60e01b81526001600160a01b038a81166004830152602482018a90529091169063a9059cbb90604401602060405180830381600087803b15801561112057600080fd5b505af1158015611134573d6000803e3d6000fd5b505050506040513d601f19601f820116820180604052508101906111589190611c18565b6111745760405162461bcd60e51b815260040161070290611cca565b876001600160a01b03167f0f5bb82176feb1b5e747e28471aa92156a04d9f3ab9f45f28e2d704232b93f75886040516111af91815260200190565b60405180910390a25050505050505050565b6000600e544210156111d257504290565b50600e5490565b6001600160a01b0381166000908152601360205260409020548015611310576001600160a01b0382166000908152601360205260408120819055600b8054839290611225908490611d65565b90915550506008546040516340c10f1960e01b81526001600160a01b03848116600483015260248201849052909116906340c10f1990604401602060405180830381600087803b15801561127857600080fd5b505af115801561128c573d6000803e3d6000fd5b505050506040513d601f19601f820116820180604052508101906112b09190611c18565b6112cc5760405162461bcd60e51b815260040161070290611cca565b816001600160a01b03167ffc30cddea38e2bf4d6ea7d3f9ed3b6ad7f176419f4963bd81318067a4aee73fe8260405161130791815260200190565b60405180910390a25b5050565b600580546001600160a01b038381166001600160a01b0319831681179093556040519116919082907f8be0079c531659141344cd1fd0a4f28419497f9722a3daafe3b4186f6b6457e090600090a35050565b826000611371610b33565b600f81905590506113806111c1565b600d556001600160a01b038216156113c35761139b8261054f565b6001600160a01b03831660009081526013602090815260408083209390935560129052208190555b6000841161140b5760405162461bcd60e51b81526020600482015260156024820152744d757374207374616b65203e203020746f6b656e7360581b6044820152606401610702565b60115483111561145d5760405162461bcd60e51b815260206004820152601960248201527f4c6f636b2065786365656473206d6178206475726174696f6e000000000000006044820152606401610702565b600854600160a01b900460ff16156114b75760405162461bcd60e51b815260206004820152601860248201527f436f6e747261637420686173206265656e206b696c6c656400000000000000006044820152606401610702565b6001600160a01b0385166000908152601460205260409020805460019091015467ffffffffffffffff80821691600160401b9004166114f68282611dbe565b8610156115455760405162461bcd60e51b815260206004820152601860248201527f4d757374206578636565642063757272656e74206c6f636b00000000000000006044820152606401610702565b6001600160a01b038816600090815260208190526040812054670de0b6b3a764000061157089610af0565b61157a8b88611d65565b6115849190611d9f565b61158e9190611d7d565b6115989190611dbe565b90506115a48885611d65565b6001600160a01b038a166000908152601460205260409020908155600101805467ffffffffffffffff19164267ffffffffffffffff8116919091179091556115ed908890611d65565b6001600160a01b038a811660008181526014602052604090819020600101805467ffffffffffffffff95909516600160401b026fffffffffffffffff0000000000000000199095169490941790935560075492516323b872dd60e01b81526004810191909152306024820152604481018b90529116906323b872dd90606401602060405180830381600087803b15801561168657600080fd5b505af115801561169a573d6000803e3d6000fd5b505050506040513d601f19601f820116820180604052508101906116be9190611c18565b6116da5760405162461bcd60e51b815260040161070290611cca565b6116e48982611a62565b886001600160a01b03167f9e71bc8eea02a63969f509818f2dafb9254532904319f9dbda79b67bd34a5f3d8960405161171f91815260200190565b60405180910390a2505050505050505050565b6000600d54600c5411156117475750600c5490565b50600d5490565b6001600160a01b0383166117b25760405162461bcd60e51b815260206004820152602560248201527f45524332303a207472616e736665722066726f6d20746865207a65726f206164604482015264647265737360d81b6064820152608401610702565b6001600160a01b0382166118145760405162461bcd60e51b815260206004820152602360248201527f45524332303a207472616e7366657220746f20746865207a65726f206164647260448201526265737360e81b6064820152608401610702565b6001600160a01b0383166000908152602081905260409020548181101561188c5760405162461bcd60e51b815260206004820152602660248201527f45524332303a207472616e7366657220616d6f756e7420657863656564732062604482015265616c616e636560d01b6064820152608401610702565b6001600160a01b038085166000908152602081905260408082208585039055918516815290812080548492906118c3908490611d65565b92505081905550826001600160a01b0316846001600160a01b03167fddf252ad1be2c89b69c2b068fc378daa952ba7f163c4a11628f55a4df523b3ef8460405161190f91815260200190565b60405180910390a3610f00565b6001600160a01b03821661197c5760405162461bcd60e51b815260206004820152602160248201527f45524332303a206275726e2066726f6d20746865207a65726f206164647265736044820152607360f81b6064820152608401610702565b6001600160a01b038216600090815260208190526040902054818110156119f05760405162461bcd60e51b815260206004820152602260248201527f45524332303a206275726e20616d6f756e7420657863656564732062616c616e604482015261636560f01b6064820152608401610702565b6001600160a01b0383166000908152602081905260408120838303905560028054849290611a1f908490611dbe565b90915550506040518281526000906001600160a01b038516907fddf252ad1be2c89b69c2b068fc378daa952ba7f163c4a11628f55a4df523b3ef90602001610db3565b6001600160a01b038216611ab85760405162461bcd60e51b815260206004820152601f60248201527f45524332303a206d696e7420746f20746865207a65726f2061646472657373006044820152606401610702565b8060026000828254611aca9190611d65565b90915550506001600160a01b03821660009081526020819052604081208054839290611af7908490611d65565b90915550506040518181526001600160a01b038316906000907fddf252ad1be2c89b69c2b068fc378daa952ba7f163c4a11628f55a4df523b3ef9060200160405180910390a35050565b80356001600160a01b0381168114611b5857600080fd5b919050565b600060208284031215611b6f57600080fd5b611b7882611b41565b9392505050565b60008060408385031215611b9257600080fd5b611b9b83611b41565b9150611ba960208401611b41565b90509250929050565b600080600060608486031215611bc757600080fd5b611bd084611b41565b9250611bde60208501611b41565b9150604084013590509250925092565b60008060408385031215611c0157600080fd5b611c0a83611b41565b946020939093013593505050565b600060208284031215611c2a57600080fd5b81518015158114611b7857600080fd5b600060208284031215611c4c57600080fd5b5035919050565b60008060408385031215611c6657600080fd5b50508035926020909101359150565b600060208083528351808285015260005b81811015611ca257858101830151858201604001528201611c86565b81811115611cb4576000604083870101525b50601f01601f1916929092016040019392505050565b602080825260159082015274151bdad95b881d1c985b9cd9995c8819985a5b1959605a1b604082015260600190565b6020808252818101527f4f776e61626c653a2063616c6c6572206973206e6f7420746865206f776e6572604082015260600190565b6020808252601f908201527f5265656e7472616e637947756172643a207265656e7472616e742063616c6c00604082015260600190565b60008219821115611d7857611d78611e10565b500190565b600082611d9a57634e487b7160e01b600052601260045260246000fd5b500490565b6000816000190483118215151615611db957611db9611e10565b500290565b600082821015611dd057611dd0611e10565b500390565b600181811c90821680611de957607f821691505b60208210811415611e0a57634e487b7160e01b600052602260045260246000fd5b50919050565b634e487b7160e01b600052601160045260246000fdfea2646970667358221220ae80b68ebe712a5b3f33b737b6ed843f87170e31731c1fdf9b69bec29bd99c8964736f6c63430008070033",
  "devdoc": {
    "kind": "dev",
    "methods": {
      "allowance(address,address)": {
        "details": "See {IERC20-allowance}."
      },
      "approve(address,uint256)": {
        "details": "See {IERC20-approve}. Requirements: - `spender` cannot be the zero address."
      },
      "balanceOf(address)": {
        "details": "See {IERC20-balanceOf}."
      },
      "decimals()": {
        "details": "Returns the number of decimals used to get its user representation. For example, if `decimals` equals `2`, a balance of `505` tokens should be displayed to a user as `5.05` (`505 / 10 ** 2`). Tokens usually opt for a value of 18, imitating the relationship between Ether and Wei. This is the value {ERC20} uses, unless this function is overridden; NOTE: This information is only used for _display_ purposes: it in no way affects any of the arithmetic of the contract, including {IERC20-balanceOf} and {IERC20-transfer}."
      },
      "decreaseAllowance(address,uint256)": {
        "details": "Atomically decreases the allowance granted to `spender` by the caller. This is an alternative to {approve} that can be used as a mitigation for problems described in {IERC20-approve}. Emits an {Approval} event indicating the updated allowance. Requirements: - `spender` cannot be the zero address. - `spender` must have allowance for the caller of at least `subtractedValue`."
      },
      "increaseAllowance(address,uint256)": {
        "details": "Atomically increases the allowance granted to `spender` by the caller. This is an alternative to {approve} that can be used as a mitigation for problems described in {IERC20-approve}. Emits an {Approval} event indicating the updated allowance. Requirements: - `spender` cannot be the zero address."
      },
      "name()": {
        "details": "Returns the name of the token."
      },
      "owner()": {
        "details": "Returns the address of the current owner."
      },
      "renounceOwnership()": {
        "details": "Leaves the contract without owner. It will not be possible to call `onlyOwner` functions anymore. Can only be called by the current owner. NOTE: Renouncing ownership will leave the contract without an owner, thereby removing any functionality that is only available to the owner."
      },
      "symbol()": {
        "details": "Returns the symbol of the token, usually a shorter version of the name."
      },
      "totalSupply()": {
        "details": "See {IERC20-totalSupply}."
      },
      "transfer(address,uint256)": {
        "details": "See {IERC20-transfer}. Requirements: - `recipient` cannot be the zero address. - the caller must have a balance of at least `amount`."
      },
      "transferFrom(address,address,uint256)": {
        "details": "See {IERC20-transferFrom}. Emits an {Approval} event indicating the updated allowance. This is not required by the EIP. See the note at the beginning of {ERC20}. Requirements: - `sender` and `recipient` cannot be the zero address. - `sender` must have a balance of at least `amount`. - the caller must have allowance for ``sender``'s tokens of at least `amount`."
      },
      "transferOwnership(address)": {
        "details": "Transfers ownership of the contract to a new account (`newOwner`). Can only be called by the current owner."
      }
    },
    "version": 1
  },
  "userdoc": {
    "kind": "user",
    "methods": {},
    "version": 1
  },
  "storageLayout": {
    "storage": [
      {
        "astId": 159,
        "contract": "contracts/OhStaking.sol:OhStaking",
        "label": "_balances",
        "offset": 0,
        "slot": "0",
        "type": "t_mapping(t_address,t_uint256)"
      },
      {
        "astId": 165,
        "contract": "contracts/OhStaking.sol:OhStaking",
        "label": "_allowances",
        "offset": 0,
        "slot": "1",
        "type": "t_mapping(t_address,t_mapping(t_address,t_uint256))"
      },
      {
        "astId": 167,
        "contract": "contracts/OhStaking.sol:OhStaking",
        "label": "_totalSupply",
        "offset": 0,
        "slot": "2",
        "type": "t_uint256"
      },
      {
        "astId": 169,
        "contract": "contracts/OhStaking.sol:OhStaking",
        "label": "_name",
        "offset": 0,
        "slot": "3",
        "type": "t_string_storage"
      },
      {
        "astId": 171,
        "contract": "contracts/OhStaking.sol:OhStaking",
        "label": "_symbol",
        "offset": 0,
        "slot": "4",
        "type": "t_string_storage"
      },
      {
        "astId": 7,
        "contract": "contracts/OhStaking.sol:OhStaking",
        "label": "_owner",
        "offset": 0,
        "slot": "5",
        "type": "t_address"
      },
      {
        "astId": 114,
        "contract": "contracts/OhStaking.sol:OhStaking",
        "label": "_status",
        "offset": 0,
        "slot": "6",
        "type": "t_uint256"
      },
      {
        "astId": 2062,
        "contract": "contracts/OhStaking.sol:OhStaking",
        "label": "token",
        "offset": 0,
        "slot": "7",
        "type": "t_contract(IERC20)767"
      },
      {
        "astId": 2065,
        "contract": "contracts/OhStaking.sol:OhStaking",
        "label": "escrow",
        "offset": 0,
        "slot": "8",
        "type": "t_contract(IEscrow)2921"
      },
      {
        "astId": 2068,
        "contract": "contracts/OhStaking.sol:OhStaking",
        "label": "isKilled",
        "offset": 20,
        "slot": "8",
        "type": "t_bool"
      },
      {
        "astId": 2071,
        "contract": "contracts/OhStaking.sol:OhStaking",
        "label": "rewardRate",
        "offset": 0,
        "slot": "9",
        "type": "t_uint256"
      },
      {
        "astId": 2074,
        "contract": "contracts/OhStaking.sol:OhStaking",
        "label": "rewardsDuration",
        "offset": 0,
        "slot": "10",
        "type": "t_uint256"
      },
      {
        "astId": 2076,
        "contract": "contracts/OhStaking.sol:OhStaking",
        "label": "claimedRewards",
        "offset": 0,
        "slot": "11",
        "type": "t_uint256"
      },
      {
        "astId": 2078,
        "contract": "contracts/OhStaking.sol:OhStaking",
        "label": "startRewardsTime",
        "offset": 0,
        "slot": "12",
        "type": "t_uint256"
      },
      {
        "astId": 2080,
        "contract": "contracts/OhStaking.sol:OhStaking",
        "label": "lastUpdateTime",
        "offset": 0,
        "slot": "13",
        "type": "t_uint256"
      },
      {
        "astId": 2082,
        "contract": "contracts/OhStaking.sol:OhStaking",
        "label": "lastRewardTimestamp",
        "offset": 0,
        "slot": "14",
        "type": "t_uint256"
      },
      {
        "astId": 2084,
        "contract": "contracts/OhStaking.sol:OhStaking",
        "label": "rewardPerTokenStored",
        "offset": 0,
        "slot": "15",
        "type": "t_uint256"
      },
      {
        "astId": 2086,
        "contract": "contracts/OhStaking.sol:OhStaking",
        "label": "maxBonus",
        "offset": 0,
        "slot": "16",
        "type": "t_uint256"
      },
      {
        "astId": 2088,
        "contract": "contracts/OhStaking.sol:OhStaking",
        "label": "maxLockDuration",
        "offset": 0,
        "slot": "17",
        "type": "t_uint256"
      },
      {
        "astId": 2092,
        "contract": "contracts/OhStaking.sol:OhStaking",
        "label": "userRewardPerTokenPaid",
        "offset": 0,
        "slot": "18",
        "type": "t_mapping(t_address,t_uint256)"
      },
      {
        "astId": 2096,
        "contract": "contracts/OhStaking.sol:OhStaking",
        "label": "rewards",
        "offset": 0,
        "slot": "19",
        "type": "t_mapping(t_address,t_uint256)"
      },
      {
        "astId": 2101,
        "contract": "contracts/OhStaking.sol:OhStaking",
        "label": "deposits",
        "offset": 0,
        "slot": "20",
        "type": "t_mapping(t_address,t_struct(Deposit)2108_storage)"
      }
    ],
    "types": {
      "t_address": {
        "encoding": "inplace",
        "label": "address",
        "numberOfBytes": "20"
      },
      "t_bool": {
        "encoding": "inplace",
        "label": "bool",
        "numberOfBytes": "1"
      },
      "t_contract(IERC20)767": {
        "encoding": "inplace",
        "label": "contract IERC20",
        "numberOfBytes": "20"
      },
      "t_contract(IEscrow)2921": {
        "encoding": "inplace",
        "label": "contract IEscrow",
        "numberOfBytes": "20"
      },
      "t_mapping(t_address,t_mapping(t_address,t_uint256))": {
        "encoding": "mapping",
        "key": "t_address",
        "label": "mapping(address => mapping(address => uint256))",
        "numberOfBytes": "32",
        "value": "t_mapping(t_address,t_uint256)"
      },
      "t_mapping(t_address,t_struct(Deposit)2108_storage)": {
        "encoding": "mapping",
        "key": "t_address",
        "label": "mapping(address => struct OhStaking.Deposit)",
        "numberOfBytes": "32",
        "value": "t_struct(Deposit)2108_storage"
      },
      "t_mapping(t_address,t_uint256)": {
        "encoding": "mapping",
        "key": "t_address",
        "label": "mapping(address => uint256)",
        "numberOfBytes": "32",
        "value": "t_uint256"
      },
      "t_string_storage": {
        "encoding": "bytes",
        "label": "string",
        "numberOfBytes": "32"
      },
      "t_struct(Deposit)2108_storage": {
        "encoding": "inplace",
        "label": "struct OhStaking.Deposit",
        "members": [
          {
            "astId": 2103,
            "contract": "contracts/OhStaking.sol:OhStaking",
            "label": "amount",
            "offset": 0,
            "slot": "0",
            "type": "t_uint256"
          },
          {
            "astId": 2105,
            "contract": "contracts/OhStaking.sol:OhStaking",
            "label": "start",
            "offset": 0,
            "slot": "1",
            "type": "t_uint64"
          },
          {
            "astId": 2107,
            "contract": "contracts/OhStaking.sol:OhStaking",
            "label": "end",
            "offset": 8,
            "slot": "1",
            "type": "t_uint64"
          }
        ],
        "numberOfBytes": "64"
      },
      "t_uint256": {
        "encoding": "inplace",
        "label": "uint256",
        "numberOfBytes": "32"
      },
      "t_uint64": {
        "encoding": "inplace",
        "label": "uint64",
        "numberOfBytes": "8"
      }
    }
  }
}